{
  "contractName": "MetaDipToken",
  "abi": [
    {
      "inputs": [],
      "stateMutability": "nonpayable",
      "type": "constructor"
    },
    {
      "anonymous": false,
      "inputs": [
        {
          "indexed": true,
          "internalType": "address",
          "name": "owner",
          "type": "address"
        },
        {
          "indexed": true,
          "internalType": "address",
          "name": "approved",
          "type": "address"
        },
        {
          "indexed": true,
          "internalType": "string",
          "name": "tokenId",
          "type": "string"
        }
      ],
      "name": "Approval",
      "type": "event"
    },
    {
      "anonymous": false,
      "inputs": [
        {
          "indexed": true,
          "internalType": "address",
          "name": "owner",
          "type": "address"
        },
        {
          "indexed": true,
          "internalType": "address",
          "name": "operator",
          "type": "address"
        },
        {
          "indexed": false,
          "internalType": "bool",
          "name": "approved",
          "type": "bool"
        }
      ],
      "name": "ApprovalForAll",
      "type": "event"
    },
    {
      "anonymous": false,
      "inputs": [
        {
          "indexed": false,
          "internalType": "uint256",
          "name": "_amount",
          "type": "uint256"
        },
        {
          "indexed": false,
          "internalType": "address",
          "name": "_from",
          "type": "address"
        },
        {
          "indexed": false,
          "internalType": "address",
          "name": "_to",
          "type": "address"
        }
      ],
      "name": "ETHTransaction",
      "type": "event"
    },
    {
      "anonymous": false,
      "inputs": [
        {
          "indexed": false,
          "internalType": "string",
          "name": "_function",
          "type": "string"
        },
        {
          "indexed": false,
          "internalType": "uint256",
          "name": "_value",
          "type": "uint256"
        },
        {
          "indexed": false,
          "internalType": "address",
          "name": "_sender",
          "type": "address"
        },
        {
          "indexed": false,
          "internalType": "bytes",
          "name": "_data",
          "type": "bytes"
        }
      ],
      "name": "Log",
      "type": "event"
    },
    {
      "anonymous": false,
      "inputs": [
        {
          "indexed": false,
          "internalType": "address",
          "name": "_student",
          "type": "address"
        },
        {
          "indexed": false,
          "internalType": "string",
          "name": "_studentFullName",
          "type": "string"
        },
        {
          "indexed": false,
          "internalType": "string",
          "name": "_academicTitle",
          "type": "string"
        },
        {
          "indexed": false,
          "internalType": "string",
          "name": "_cid",
          "type": "string"
        }
      ],
      "name": "NewCertificateIssued",
      "type": "event"
    },
    {
      "anonymous": false,
      "inputs": [
        {
          "indexed": false,
          "internalType": "address",
          "name": "_student",
          "type": "address"
        },
        {
          "indexed": false,
          "internalType": "address",
          "name": "_university",
          "type": "address"
        }
      ],
      "name": "NewCertificateRequested",
      "type": "event"
    },
    {
      "anonymous": false,
      "inputs": [
        {
          "indexed": true,
          "internalType": "address",
          "name": "previousOwner",
          "type": "address"
        },
        {
          "indexed": true,
          "internalType": "address",
          "name": "newOwner",
          "type": "address"
        }
      ],
      "name": "OwnershipTransferred",
      "type": "event"
    },
    {
      "anonymous": false,
      "inputs": [
        {
          "indexed": false,
          "internalType": "address",
          "name": "account",
          "type": "address"
        }
      ],
      "name": "Paused",
      "type": "event"
    },
    {
      "anonymous": false,
      "inputs": [
        {
          "indexed": true,
          "internalType": "address",
          "name": "from",
          "type": "address"
        },
        {
          "indexed": true,
          "internalType": "address",
          "name": "to",
          "type": "address"
        },
        {
          "indexed": true,
          "internalType": "string",
          "name": "tokenId",
          "type": "string"
        }
      ],
      "name": "Transfer",
      "type": "event"
    },
    {
      "anonymous": false,
      "inputs": [
        {
          "indexed": false,
          "internalType": "address",
          "name": "account",
          "type": "address"
        }
      ],
      "name": "Unpaused",
      "type": "event"
    },
    {
      "stateMutability": "payable",
      "type": "fallback",
      "payable": true
    },
    {
      "inputs": [
        {
          "internalType": "address",
          "name": "to",
          "type": "address"
        },
        {
          "internalType": "string",
          "name": "tokenId",
          "type": "string"
        }
      ],
      "name": "approve",
      "outputs": [],
      "stateMutability": "nonpayable",
      "type": "function"
    },
    {
      "inputs": [
        {
          "internalType": "address",
          "name": "owner",
          "type": "address"
        }
      ],
      "name": "balanceOf",
      "outputs": [
        {
          "internalType": "uint256",
          "name": "",
          "type": "uint256"
        }
      ],
      "stateMutability": "view",
      "type": "function",
      "constant": true
    },
    {
      "inputs": [
        {
          "internalType": "string",
          "name": "tokenId",
          "type": "string"
        }
      ],
      "name": "getApproved",
      "outputs": [
        {
          "internalType": "address",
          "name": "",
          "type": "address"
        }
      ],
      "stateMutability": "view",
      "type": "function",
      "constant": true
    },
    {
      "inputs": [
        {
          "internalType": "address",
          "name": "owner",
          "type": "address"
        },
        {
          "internalType": "address",
          "name": "operator",
          "type": "address"
        }
      ],
      "name": "isApprovedForAll",
      "outputs": [
        {
          "internalType": "bool",
          "name": "",
          "type": "bool"
        }
      ],
      "stateMutability": "view",
      "type": "function",
      "constant": true
    },
    {
      "inputs": [],
      "name": "name",
      "outputs": [
        {
          "internalType": "string",
          "name": "",
          "type": "string"
        }
      ],
      "stateMutability": "view",
      "type": "function",
      "constant": true
    },
    {
      "inputs": [],
      "name": "owner",
      "outputs": [
        {
          "internalType": "address",
          "name": "",
          "type": "address"
        }
      ],
      "stateMutability": "view",
      "type": "function",
      "constant": true
    },
    {
      "inputs": [
        {
          "internalType": "string",
          "name": "tokenId",
          "type": "string"
        }
      ],
      "name": "ownerOf",
      "outputs": [
        {
          "internalType": "address",
          "name": "",
          "type": "address"
        }
      ],
      "stateMutability": "view",
      "type": "function",
      "constant": true
    },
    {
      "inputs": [],
      "name": "paused",
      "outputs": [
        {
          "internalType": "bool",
          "name": "",
          "type": "bool"
        }
      ],
      "stateMutability": "view",
      "type": "function",
      "constant": true
    },
    {
      "inputs": [],
      "name": "renounceOwnership",
      "outputs": [],
      "stateMutability": "nonpayable",
      "type": "function"
    },
    {
      "inputs": [
        {
          "internalType": "address",
          "name": "from",
          "type": "address"
        },
        {
          "internalType": "address",
          "name": "to",
          "type": "address"
        },
        {
          "internalType": "string",
          "name": "tokenId",
          "type": "string"
        },
        {
          "internalType": "bytes",
          "name": "_data",
          "type": "bytes"
        }
      ],
      "name": "safeTransferFrom",
      "outputs": [],
      "stateMutability": "nonpayable",
      "type": "function"
    },
    {
      "inputs": [
        {
          "internalType": "address",
          "name": "from",
          "type": "address"
        },
        {
          "internalType": "address",
          "name": "to",
          "type": "address"
        },
        {
          "internalType": "string",
          "name": "tokenId",
          "type": "string"
        }
      ],
      "name": "safeTransferFrom",
      "outputs": [],
      "stateMutability": "nonpayable",
      "type": "function"
    },
    {
      "inputs": [
        {
          "internalType": "address",
          "name": "operator",
          "type": "address"
        },
        {
          "internalType": "bool",
          "name": "approved",
          "type": "bool"
        }
      ],
      "name": "setApprovalForAll",
      "outputs": [],
      "stateMutability": "nonpayable",
      "type": "function"
    },
    {
      "inputs": [
        {
          "internalType": "bytes4",
          "name": "interfaceId",
          "type": "bytes4"
        }
      ],
      "name": "supportsInterface",
      "outputs": [
        {
          "internalType": "bool",
          "name": "",
          "type": "bool"
        }
      ],
      "stateMutability": "view",
      "type": "function",
      "constant": true
    },
    {
      "inputs": [],
      "name": "symbol",
      "outputs": [
        {
          "internalType": "string",
          "name": "",
          "type": "string"
        }
      ],
      "stateMutability": "view",
      "type": "function",
      "constant": true
    },
    {
      "inputs": [
        {
          "internalType": "string",
          "name": "tokenId",
          "type": "string"
        }
      ],
      "name": "tokenURI",
      "outputs": [
        {
          "internalType": "string",
          "name": "",
          "type": "string"
        }
      ],
      "stateMutability": "view",
      "type": "function",
      "constant": true
    },
    {
      "inputs": [
        {
          "internalType": "address",
          "name": "from",
          "type": "address"
        },
        {
          "internalType": "address",
          "name": "to",
          "type": "address"
        },
        {
          "internalType": "string",
          "name": "tokenId",
          "type": "string"
        }
      ],
      "name": "transferFrom",
      "outputs": [],
      "stateMutability": "nonpayable",
      "type": "function"
    },
    {
      "inputs": [
        {
          "internalType": "address",
          "name": "newOwner",
          "type": "address"
        }
      ],
      "name": "transferOwnership",
      "outputs": [],
      "stateMutability": "nonpayable",
      "type": "function"
    },
    {
      "stateMutability": "payable",
      "type": "receive",
      "payable": true
    },
    {
      "inputs": [],
      "name": "getUniversity",
      "outputs": [
        {
          "internalType": "string",
          "name": "",
          "type": "string"
        }
      ],
      "stateMutability": "view",
      "type": "function",
      "constant": true
    },
    {
      "inputs": [],
      "name": "getContractAddress",
      "outputs": [
        {
          "internalType": "address",
          "name": "",
          "type": "address"
        }
      ],
      "stateMutability": "view",
      "type": "function",
      "constant": true
    },
    {
      "inputs": [
        {
          "internalType": "address",
          "name": "student",
          "type": "address"
        }
      ],
      "name": "getTokenURI",
      "outputs": [
        {
          "internalType": "string",
          "name": "",
          "type": "string"
        }
      ],
      "stateMutability": "view",
      "type": "function",
      "constant": true
    },
    {
      "inputs": [
        {
          "internalType": "address",
          "name": "student",
          "type": "address"
        }
      ],
      "name": "getAcceptedRequests",
      "outputs": [
        {
          "internalType": "string",
          "name": "",
          "type": "string"
        }
      ],
      "stateMutability": "view",
      "type": "function",
      "constant": true
    },
    {
      "inputs": [
        {
          "internalType": "address",
          "name": "student",
          "type": "address"
        }
      ],
      "name": "getCertificateAvailable",
      "outputs": [
        {
          "internalType": "string",
          "name": "",
          "type": "string"
        }
      ],
      "stateMutability": "view",
      "type": "function",
      "constant": true
    },
    {
      "inputs": [],
      "name": "getPrice",
      "outputs": [
        {
          "internalType": "string",
          "name": "",
          "type": "string"
        },
        {
          "internalType": "string",
          "name": "",
          "type": "string"
        }
      ],
      "stateMutability": "view",
      "type": "function",
      "constant": true
    },
    {
      "inputs": [
        {
          "internalType": "address",
          "name": "_student",
          "type": "address"
        },
        {
          "internalType": "uint8",
          "name": "_certNumb",
          "type": "uint8"
        }
      ],
      "name": "getCertificateInformation",
      "outputs": [
        {
          "components": [
            {
              "internalType": "string",
              "name": "_studentFullName",
              "type": "string"
            },
            {
              "internalType": "uint256",
              "name": "_matriculationNumber",
              "type": "uint256"
            },
            {
              "internalType": "string",
              "name": "_gpa",
              "type": "string"
            },
            {
              "internalType": "string",
              "name": "_university",
              "type": "string"
            },
            {
              "internalType": "string",
              "name": "_academicTitle",
              "type": "string"
            }
          ],
          "internalType": "struct MetaDipToken.CertificateInformation",
          "name": "",
          "type": "tuple"
        }
      ],
      "stateMutability": "view",
      "type": "function",
      "constant": true
    },
    {
      "inputs": [],
      "name": "requestCertificate",
      "outputs": [
        {
          "internalType": "string",
          "name": "",
          "type": "string"
        }
      ],
      "stateMutability": "payable",
      "type": "function",
      "payable": true
    },
    {
      "inputs": [
        {
          "internalType": "address",
          "name": "_studentAddress",
          "type": "address"
        }
      ],
      "name": "requestVerification",
      "outputs": [
        {
          "internalType": "string",
          "name": "",
          "type": "string"
        },
        {
          "internalType": "string",
          "name": "",
          "type": "string"
        },
        {
          "components": [
            {
              "internalType": "string",
              "name": "_studentFullName",
              "type": "string"
            },
            {
              "internalType": "uint256",
              "name": "_matriculationNumber",
              "type": "uint256"
            },
            {
              "internalType": "string",
              "name": "_gpa",
              "type": "string"
            },
            {
              "internalType": "string",
              "name": "_university",
              "type": "string"
            },
            {
              "internalType": "string",
              "name": "_academicTitle",
              "type": "string"
            }
          ],
          "internalType": "struct MetaDipToken.CertificateInformation",
          "name": "",
          "type": "tuple"
        }
      ],
      "stateMutability": "view",
      "type": "function",
      "constant": true
    },
    {
      "inputs": [
        {
          "internalType": "address",
          "name": "_studentAddress",
          "type": "address"
        }
      ],
      "name": "checkCertificateRequests",
      "outputs": [
        {
          "internalType": "string",
          "name": "",
          "type": "string"
        }
      ],
      "stateMutability": "view",
      "type": "function",
      "constant": true
    },
    {
      "inputs": [
        {
          "internalType": "address",
          "name": "_studentAddress",
          "type": "address"
        },
        {
          "internalType": "string",
          "name": "_cid",
          "type": "string"
        },
        {
          "internalType": "string",
          "name": "_studentFullName",
          "type": "string"
        },
        {
          "internalType": "uint256",
          "name": "_matriculationNumber",
          "type": "uint256"
        },
        {
          "internalType": "string",
          "name": "_gpa",
          "type": "string"
        },
        {
          "internalType": "string",
          "name": "_academicTitle",
          "type": "string"
        }
      ],
      "name": "createCertificate",
      "outputs": [],
      "stateMutability": "nonpayable",
      "type": "function"
    },
    {
      "inputs": [
        {
          "internalType": "string",
          "name": "_university",
          "type": "string"
        }
      ],
      "name": "setUniversity",
      "outputs": [
        {
          "internalType": "string",
          "name": "",
          "type": "string"
        }
      ],
      "stateMutability": "nonpayable",
      "type": "function"
    },
    {
      "inputs": [
        {
          "internalType": "uint256",
          "name": "_CERTIFICATE_PRICE",
          "type": "uint256"
        }
      ],
      "name": "editPrice",
      "outputs": [],
      "stateMutability": "nonpayable",
      "type": "function"
    },
    {
      "inputs": [
        {
          "internalType": "address",
          "name": "to",
          "type": "address"
        },
        {
          "internalType": "string",
          "name": "tokenId",
          "type": "string"
        }
      ],
      "name": "safeMint",
      "outputs": [],
      "stateMutability": "nonpayable",
      "type": "function"
    },
    {
      "inputs": [
        {
          "internalType": "uint256",
          "name": "_amount",
          "type": "uint256"
        }
      ],
      "name": "withdraw",
      "outputs": [],
      "stateMutability": "nonpayable",
      "type": "function"
    },
    {
      "inputs": [],
      "name": "withdrawAll",
      "outputs": [],
      "stateMutability": "nonpayable",
      "type": "function"
    },
    {
      "inputs": [],
      "name": "pause",
      "outputs": [],
      "stateMutability": "nonpayable",
      "type": "function"
    },
    {
      "inputs": [],
      "name": "unpause",
      "outputs": [],
      "stateMutability": "nonpayable",
      "type": "function"
    },
    {
      "inputs": [],
      "name": "getBalance",
      "outputs": [
        {
          "internalType": "uint256",
          "name": "",
          "type": "uint256"
        }
      ],
      "stateMutability": "view",
      "type": "function",
      "constant": true
    },
    {
      "inputs": [
        {
          "internalType": "address payable",
          "name": "_to",
          "type": "address"
        },
        {
          "internalType": "uint256",
          "name": "_amount",
          "type": "uint256"
        }
      ],
      "name": "sendViaTransfer",
      "outputs": [
        {
          "internalType": "bool",
          "name": "",
          "type": "bool"
        }
      ],
      "stateMutability": "payable",
      "type": "function",
      "payable": true
    }
  ],
  "bytecode": "0x60806040523480156200001157600080fd5b506040518060400160405280600781526020016604d6574614469760cc1b8152506040518060400160405280600581526020016426a22a35b760d91b8152508160009081620000619190620001ef565b506001620000708282620001ef565b50506006805460ff19169055506200008833620000f0565b670de0b6b3a764000060075560408051808201909152601d81527f68747470733a2f2f6e667473746f726167652e6c696e6b2f697066732f0000006020820152600890620000d79082620001ef565b50600a80546001600160a01b03191633179055620002bb565b600680546001600160a01b03838116610100818102610100600160a81b031985161790945560405193909204169182907f8be0079c531659141344cd1fd0a4f28419497f9722a3daafe3b4186f6b6457e090600090a35050565b634e487b7160e01b600052604160045260246000fd5b600181811c908216806200017557607f821691505b6020821081036200019657634e487b7160e01b600052602260045260246000fd5b50919050565b601f821115620001ea57600081815260208120601f850160051c81016020861015620001c55750805b601f850160051c820191505b81811015620001e657828155600101620001d1565b5050505b505050565b81516001600160401b038111156200020b576200020b6200014a565b62000223816200021c845462000160565b846200019c565b602080601f8311600181146200025b5760008415620002425750858301515b600019600386901b1c1916600185901b178555620001e6565b600085815260208120601f198616915b828110156200028c578886015182559484019460019091019084016200026b565b5085821015620002ab5787850151600019600388901b60f8161c191681555b5050505050600190811b01905550565b61371080620002cb6000396000f3fe60806040526004361061021e5760003560e01c806370a0823111610123578063a22a8b29116100ab578063e985e9c51161006f578063e985e9c514610691578063ea600a43146106da578063f0618ef8146106ef578063f2fde38b1461071e578063ff405e721461073e5761028f565b8063a22a8b29146105fe578063a22cb4651461061e578063b92a66c71461063e578063d204c45e1461065e578063d27f8e661461067e5761028f565b8063853828b6116100f2578063853828b61461056e5780638da5cb5b14610583578063920ffa26146105a657806395d89b41146105c657806398d5fdca146105db5761028f565b806370a082311461051c578063715018a61461053c578063805dd508146105515780638456cb59146105595761028f565b80633f4ba83a116101a657806352adffd71161017557806352adffd7146104775780635c975abb146104975780635d0dc244146104af57806361c028e7146104dc57806363aae5fd146104fc5761028f565b80633f4ba83a14610402578063449a61c314610417578063457ff89c146104375780634cf12d26146104575761028f565b806329cd00f7116101ed57806329cd00f7146103595780632c8f3a1c1461037b5780632e1a7d4d1461039b57806332a2c5d0146103bb5780633ebfc934146103e25761028f565b806301ffc9a7146102c5578063066bbb26146102fa57806306fdde031461032757806312065fe01461033c5761028f565b3661028f57604080516080808252600790820152667265636569766560c81b60a0820152346020820152339181019190915260c0606082018190526000908201527f118551c95fdacf11d47bae31ac130a3d4b5ed84ee1154a2ed20f250ad55403a09060e0015b60405180910390a1005b7f118551c95fdacf11d47bae31ac130a3d4b5ed84ee1154a2ed20f250ad55403a034336000366040516102859493929190612bbd565b3480156102d157600080fd5b506102e56102e0366004612c37565b61075e565b60405190151581526020015b60405180910390f35b34801561030657600080fd5b5061031a610315366004612d00565b6107b0565b6040516102f19190612d8d565b34801561033357600080fd5b5061031a61088c565b34801561034857600080fd5b50475b6040519081526020016102f1565b34801561036557600080fd5b50610379610374366004612dc0565b61091e565b005b34801561038757600080fd5b50610379610396366004612e10565b610a33565b3480156103a757600080fd5b506103796103b6366004612ead565b610a6b565b3480156103c757600080fd5b50305b6040516001600160a01b0390911681526020016102f1565b3480156103ee57600080fd5b506103796103fd366004612ec6565b610b94565b34801561040e57600080fd5b50610379610bc5565b34801561042357600080fd5b5061031a610432366004612f28565b610bff565b34801561044357600080fd5b5061031a610452366004612f28565b610c86565b34801561046357600080fd5b5061031a610472366004612d00565b610d14565b34801561048357600080fd5b50610379610492366004612ec6565b610dd7565b3480156104a357600080fd5b5060065460ff166102e5565b3480156104bb57600080fd5b506104cf6104ca366004612f45565b610df2565b6040516102f19190612ff9565b3480156104e857600080fd5b5061031a6104f7366004612f28565b61111b565b34801561050857600080fd5b5061031a610517366004612f28565b61122d565b34801561052857600080fd5b5061034b610537366004612f28565b6112eb565b34801561054857600080fd5b50610379611372565b61031a6113ac565b34801561056557600080fd5b506103796115dc565b34801561057a57600080fd5b50610379611614565b34801561058f57600080fd5b5060065461010090046001600160a01b03166103ca565b3480156105b257600080fd5b506103ca6105c1366004612d00565b6116cd565b3480156105d257600080fd5b5061031a61175a565b3480156105e757600080fd5b506105f0611769565b6040516102f192919061300c565b34801561060a57600080fd5b50610379610619366004612ead565b6117cb565b34801561062a57600080fd5b50610379610639366004613031565b611823565b34801561064a57600080fd5b506103ca610659366004612d00565b611832565b34801561066a57600080fd5b50610379610679366004612dc0565b6118cd565b6102e561068c366004613064565b61192a565b34801561069d57600080fd5b506102e56106ac366004613090565b6001600160a01b03918216600090815260056020908152604080832093909416825291909152205460ff1690565b3480156106e657600080fd5b5061031a61196c565b3480156106fb57600080fd5b5061070f61070a366004612f28565b61197b565b6040516102f1939291906130be565b34801561072a57600080fd5b50610379610739366004612f28565b611cf1565b34801561074a57600080fd5b50610379610759366004613101565b611d92565b60006001600160e01b03198216630f2f89ef60e31b148061078f57506001600160e01b031982166337f51a1960e21b145b806107aa57506301ffc9a760e01b6001600160e01b03198316145b92915050565b6006546060906001600160a01b036101009091041633146107ec5760405162461bcd60e51b81526004016107e3906131c7565b60405180910390fd5b60096107f88382613284565b5060098054610806906131fc565b80601f0160208091040260200160405190810160405280929190818152602001828054610832906131fc565b801561087f5780601f106108545761010080835404028352916020019161087f565b820191906000526020600020905b81548152906001019060200180831161086257829003601f168201915b505050505090505b919050565b60606000805461089b906131fc565b80601f01602080910402602001604051908101604052809291908181526020018280546108c7906131fc565b80156109145780601f106108e957610100808354040283529160200191610914565b820191906000526020600020905b8154815290600101906020018083116108f757829003601f168201915b5050505050905090565b6000610929826116cd565b9050806001600160a01b0316836001600160a01b0316036109965760405162461bcd60e51b815260206004820152602160248201527f4552433732313a20617070726f76616c20746f2063757272656e74206f776e656044820152603960f91b60648201526084016107e3565b336001600160a01b03821614806109b257506109b281336106ac565b610a245760405162461bcd60e51b815260206004820152603860248201527f4552433732313a20617070726f76652063616c6c6572206973206e6f74206f7760448201527f6e6572206e6f7220617070726f76656420666f7220616c6c000000000000000060648201526084016107e3565b610a2e8383612113565b505050565b610a3d33836121b3565b610a595760405162461bcd60e51b81526004016107e390613344565b610a658484848461229d565b50505050565b6006546001600160a01b03610100909104163314610a9b5760405162461bcd60e51b81526004016107e3906131c7565b610aa36122d0565b811115610b0c5760405162461bcd60e51b815260206004820152603160248201527f4e6f7420706f737369626c6520746f207769746864726177206d6f726520455460448201527024103a3430b71030bb30b4b630b136329760791b60648201526084016107e3565b600a546040516001600160a01b039091169082156108fc029083906000818181858888f19350505050158015610b46573d6000803e3d6000fd5b50600a54604080518381523360208201526001600160a01b0390921682820152517fcc622b357682c9b464952acec65ddc648232f60f37e4b884745e52bd508cfaac9181900360600190a150565b610b9e33826121b3565b610bba5760405162461bcd60e51b81526004016107e390613344565b610a2e838383612308565b6006546001600160a01b03610100909104163314610bf55760405162461bcd60e51b81526004016107e3906131c7565b610bfd6124ee565b565b6001600160a01b0381166000908152600e602052604090205460609060ff161515600103610c555750506040805180820190915260128152712234b83637b6b09030bb30b4b630b136329760711b602082015290565b50506040805180820190915260158152742737902234b83637b6b09030bb30b4b630b136329760591b602082015290565b6001600160a01b0381166000908152600b602052604090205460609060ff161515600103610cdb5750506040805180820190915260118152702932b8bab2b9ba1030b1b1b2b83a32b21760791b602082015290565b505060408051808201909152601f81527f52657175657374206e6f7420697373756564206f722061636365707465642e00602082015290565b6060610d1f8261257c565b610d835760405162461bcd60e51b815260206004820152602f60248201527f4552433732314d657461646174613a2055524920717565727920666f72206e6f60448201526e3732bc34b9ba32b73a103a37b5b2b760891b60648201526084016107e3565b6000610d8d6125b9565b90506000815111610dad5760405180602001604052806000815250610dd0565b8083604051602001610dc0929190613395565b6040516020818303038152906040525b9392505050565b610a2e83838360405180602001604052806000815250610a33565b610e246040518060a0016040528060608152602001600081526020016060815260200160608152602001606081525090565b6001600160a01b0383166000908152600e602052604090205460ff161515600114610e915760405162461bcd60e51b815260206004820152601e60248201527f5468657265206973206e6f204469706c6f6d6120617661696c61626c652e000060448201526064016107e3565b6001600160a01b0383166000908152600c6020908152604080832060ff8616845290915290819020815160a08101909252805482908290610ed1906131fc565b80601f0160208091040260200160405190810160405280929190818152602001828054610efd906131fc565b8015610f4a5780601f10610f1f57610100808354040283529160200191610f4a565b820191906000526020600020905b815481529060010190602001808311610f2d57829003601f168201915b5050505050815260200160018201548152602001600282018054610f6d906131fc565b80601f0160208091040260200160405190810160405280929190818152602001828054610f99906131fc565b8015610fe65780601f10610fbb57610100808354040283529160200191610fe6565b820191906000526020600020905b815481529060010190602001808311610fc957829003601f168201915b50505050508152602001600382018054610fff906131fc565b80601f016020809104026020016040519081016040528092919081815260200182805461102b906131fc565b80156110785780601f1061104d57610100808354040283529160200191611078565b820191906000526020600020905b81548152906001019060200180831161105b57829003601f168201915b50505050508152602001600482018054611091906131fc565b80601f01602080910402602001604051908101604052809291908181526020018280546110bd906131fc565b801561110a5780601f106110df5761010080835404028352916020019161110a565b820191906000526020600020905b8154815290600101906020018083116110ed57829003601f168201915b505050505081525050905092915050565b6001600160a01b0381166000908152600e602052604090205460609060ff1615156001146111815760405162461bcd60e51b81526020600482015260136024820152722737903a37b5b2b71030bb30b4b630b136329760691b60448201526064016107e3565b6001600160a01b0382166000908152600f6020526040812080546111a4906131fc565b80601f01602080910402602001604051908101604052809291908181526020018280546111d0906131fc565b801561121d5780601f106111f25761010080835404028352916020019161121d565b820191906000526020600020905b81548152906001019060200180831161120057829003601f168201915b50505050509050610dd081610d14565b606061123b60065460ff1690565b156112585760405162461bcd60e51b81526004016107e3906133c4565b6006546001600160a01b036101009091041633146112885760405162461bcd60e51b81526004016107e3906131c7565b6001600160a01b0382166000908152600b602052604090205460ff1615156001036112cc576040518060600160405280602681526020016136126026913992915050565b6040518060600160405280603481526020016135de6034913992915050565b60006001600160a01b0382166113565760405162461bcd60e51b815260206004820152602a60248201527f4552433732313a2062616c616e636520717565727920666f7220746865207a65604482015269726f206164647265737360b01b60648201526084016107e3565b506001600160a01b031660009081526003602052604090205490565b6006546001600160a01b036101009091041633146113a25760405162461bcd60e51b81526004016107e3906131c7565b610bfd60006125c8565b60606113ba60065460ff1690565b156113d75760405162461bcd60e51b81526004016107e3906133c4565b60075434146114405760405162461bcd60e51b815260206004820152602f60248201527f4e6f742074686520726967687420616d6f756e74206f6620657468657220284560448201526e2a2414903a3930b739b332b932b21760891b60648201526084016107e3565b600a54611456906001600160a01b03163461192a565b50336000908152600e602052604090205460ff16151560010361157157336000818152600b60205260409020805460ff191660011790557fce988a8bde79b794424d3db7a3bf74467307f71cc83b966051a35840639efe9b906114c76006546001600160a01b036101009091041690565b604080516001600160a01b0393841681529290911660208301520160405180910390a17fcc622b357682c9b464952acec65ddc648232f60f37e4b884745e52bd508cfaac34336115256006546001600160a01b036101009091041690565b604080519384526001600160a01b03928316602085015291169082015260600160405180910390a160006040518060800160405280605c8152602001613638605c913991506115d99050565b336000818152600d60209081526040808320805460ff19908116909155600b909252909120805490911660011790556006547fce988a8bde79b794424d3db7a3bf74467307f71cc83b966051a35840639efe9b919061010090046001600160a01b03166114c7565b90565b6006546001600160a01b0361010090910416331461160c5760405162461bcd60e51b81526004016107e3906131c7565b610bfd612622565b6006546001600160a01b036101009091041633146116445760405162461bcd60e51b81526004016107e3906131c7565b600a546040516001600160a01b03909116904780156108fc02916000818181858888f1935050505015801561167d573d6000803e3d6000fd5b50600a54604080514781523360208201526001600160a01b03909216908201527fcc622b357682c9b464952acec65ddc648232f60f37e4b884745e52bd508cfaac906060015b60405180910390a1565b6000806002836040516116e091906133ee565b908152604051908190036020019020546001600160a01b03169050806107aa5760405162461bcd60e51b815260206004820152602960248201527f4552433732313a206f776e657220717565727920666f72206e6f6e657869737460448201526832b73a103a37b5b2b760b91b60648201526084016107e3565b60606001805461089b906131fc565b60608061177860065460ff1690565b156117955760405162461bcd60e51b81526004016107e3906133c4565b6117a060075461267a565b60408051808201909152600c81526b507269636520696e2057656960a01b6020820152925090509091565b60065460ff16156117ee5760405162461bcd60e51b81526004016107e3906133c4565b6006546001600160a01b0361010090910416331461181e5760405162461bcd60e51b81526004016107e3906131c7565b600755565b61182e33838361277b565b5050565b600061183d8261257c565b61189e5760405162461bcd60e51b815260206004820152602c60248201527f4552433732313a20617070726f76656420717565727920666f72206e6f6e657860448201526b34b9ba32b73a103a37b5b2b760a11b60648201526084016107e3565b6004826040516118ae91906133ee565b908152604051908190036020019020546001600160a01b031692915050565b60065460ff16156118f05760405162461bcd60e51b81526004016107e3906133c4565b6006546001600160a01b036101009091041633146119205760405162461bcd60e51b81526004016107e3906131c7565b61182e8282612849565b6040516000906001600160a01b0384169083156108fc0290849084818181858888f19350505050158015611962573d6000803e3d6000fd5b5060019392505050565b60606009805461089b906131fc565b6060806119b06040518060a0016040528060608152602001600081526020016060815260200160608152602001606081525090565b6001600160a01b0384166000908152600e602052604090205460ff161515600114611a1d5760405162461bcd60e51b815260206004820152601e60248201527f5468657265206973204e4f206469706c6f6d6120617661696c61626c6521000060448201526064016107e3565b6001600160a01b0384166000908152600d602052604090205460ff16611a428161267a565b6001600160a01b0386166000908152600c6020908152604080832060ff861684528252918290208251608081019093526047808452909291613694908301399190806040518060a0016040529081600082018054611a9f906131fc565b80601f0160208091040260200160405190810160405280929190818152602001828054611acb906131fc565b8015611b185780601f10611aed57610100808354040283529160200191611b18565b820191906000526020600020905b815481529060010190602001808311611afb57829003601f168201915b5050505050815260200160018201548152602001600282018054611b3b906131fc565b80601f0160208091040260200160405190810160405280929190818152602001828054611b67906131fc565b8015611bb45780601f10611b8957610100808354040283529160200191611bb4565b820191906000526020600020905b815481529060010190602001808311611b9757829003601f168201915b50505050508152602001600382018054611bcd906131fc565b80601f0160208091040260200160405190810160405280929190818152602001828054611bf9906131fc565b8015611c465780601f10611c1b57610100808354040283529160200191611c46565b820191906000526020600020905b815481529060010190602001808311611c2957829003601f168201915b50505050508152602001600482018054611c5f906131fc565b80601f0160208091040260200160405190810160405280929190818152602001828054611c8b906131fc565b8015611cd85780601f10611cad57610100808354040283529160200191611cd8565b820191906000526020600020905b815481529060010190602001808311611cbb57829003601f168201915b5050505050815250509050935093509350509193909250565b6006546001600160a01b03610100909104163314611d215760405162461bcd60e51b81526004016107e3906131c7565b6001600160a01b038116611d865760405162461bcd60e51b815260206004820152602660248201527f4f776e61626c653a206e6577206f776e657220697320746865207a65726f206160448201526564647265737360d01b60648201526084016107e3565b611d8f816125c8565b50565b6006546001600160a01b03610100909104163314611dc25760405162461bcd60e51b81526004016107e3906131c7565b60065460ff1615611de55760405162461bcd60e51b81526004016107e3906133c4565b600060098054611df4906131fc565b905011611e575760405162461bcd60e51b815260206004820152602b60248201527f41444d494e495354524154494f4e204552524f523a20556e697665727369747960448201526a081a5cc81b9bdd081cd95d60aa1b60648201526084016107e3565b6001600160a01b0386166000908152600b602052604090205460ff161515600114611eea5760405162461bcd60e51b815260206004820152603960248201527f53545544454e54204552524f523a2053747564656e7420686173206e6f74207260448201527f6571756573746564207468652043657274696669636174652e0000000000000060648201526084016107e3565b60006040518060a0016040528086815260200185815260200184815260200160098054611f16906131fc565b80601f0160208091040260200160405190810160405280929190818152602001828054611f42906131fc565b8015611f8f5780601f10611f6457610100808354040283529160200191611f8f565b820191906000526020600020905b815481529060010190602001808311611f7257829003601f168201915b505050918352505060209081018490526001600160a01b0389166000908152600d90915260408120805492935060ff9092169190611fcc83613420565b82546101009290920a60ff8181021990931691831602179091556001600160a01b0389166000908152600d6020908152604080832054600c835281842094168084529390915290208351919250839181906120279082613284565b5060208201516001820155604082015160028201906120469082613284565b506060820151600382019061205b9082613284565b50608082015160048201906120709082613284565b5050506001600160a01b0388166000908152600f602052604090206120958882613284565b506001600160a01b0388166000908152600e60205260409020805460ff191660011790556120c388886118cd565b7f6f2a90f572b3245bdd0fcf374db21fc4c1453f6a15f2a53a112446680de3664c8887858a6040516120f8949392919061343f565b60405180910390a161210988612863565b5050505050505050565b8160048260405161212491906133ee565b90815260405190819003602001812080546001600160a01b03939093166001600160a01b03199093169290921790915561215f9082906133ee565b6040518091039020826001600160a01b031661217a836116cd565b6001600160a01b03167f1f84ad2a44b444ff59c84b14c29a0515df82fffbd26a5a923e601d8302872c9160405160405180910390a45050565b60006121be8261257c565b61221f5760405162461bcd60e51b815260206004820152602c60248201527f4552433732313a206f70657261746f7220717565727920666f72206e6f6e657860448201526b34b9ba32b73a103a37b5b2b760a11b60648201526084016107e3565b600061222a836116cd565b9050806001600160a01b0316846001600160a01b0316148061227157506001600160a01b0380821660009081526005602090815260408083209388168352929052205460ff165b806122955750836001600160a01b031661228a84611832565b6001600160a01b0316145b949350505050565b6122a8848484612308565b6122b4848484846128f1565b610a655760405162461bcd60e51b81526004016107e390613494565b6006546000906001600160a01b036101009091041633146123035760405162461bcd60e51b81526004016107e3906131c7565b504790565b826001600160a01b031661231b826116cd565b6001600160a01b03161461237f5760405162461bcd60e51b815260206004820152602560248201527f4552433732313a207472616e736665722066726f6d20696e636f72726563742060448201526437bbb732b960d91b60648201526084016107e3565b6001600160a01b0382166123e15760405162461bcd60e51b8152602060048201526024808201527f4552433732313a207472616e7366657220746f20746865207a65726f206164646044820152637265737360e01b60648201526084016107e3565b6123ec8383836129f2565b6123f7600082612113565b6001600160a01b03831660009081526003602052604081208054600192906124209084906134e6565b90915550506001600160a01b038216600090815260036020526040812080546001929061244e9084906134fd565b925050819055508160028260405161246691906133ee565b90815260405190819003602001812080546001600160a01b03939093166001600160a01b0319909316929092179091556124a19082906133ee565b6040518091039020826001600160a01b0316846001600160a01b03167f55e10366a5f552746106978b694d7ef3bbddec06bd5f9b9d15ad46f475c653ef60405160405180910390a4505050565b60065460ff166125375760405162461bcd60e51b815260206004820152601460248201527314185d5cd8589b194e881b9bdd081c185d5cd95960621b60448201526064016107e3565b6006805460ff191690557f5db9ee0a495bf2e6ff9c91a7834c1ba4fdd244a5e8aa4e537bd38aeae4b073aa335b6040516001600160a01b0390911681526020016116c3565b6000806001600160a01b031660028360405161259891906133ee565b908152604051908190036020019020546001600160a01b0316141592915050565b60606008805461089b906131fc565b600680546001600160a01b03838116610100818102610100600160a81b031985161790945560405193909204169182907f8be0079c531659141344cd1fd0a4f28419497f9722a3daafe3b4186f6b6457e090600090a35050565b60065460ff16156126455760405162461bcd60e51b81526004016107e3906133c4565b6006805460ff191660011790557f62e78cea01bee320cd4e420270b5ea74000d11b0c9f74754ebdbfc544b05a2586125643390565b6060816000036126a15750506040805180820190915260018152600360fc1b602082015290565b8160005b81156126cb57806126b581613515565b91506126c49050600a83613544565b91506126a5565b60008167ffffffffffffffff8111156126e6576126e6612c54565b6040519080825280601f01601f191660200182016040528015612710576020820181803683370190505b5090505b8415612295576127256001836134e6565b9150612732600a86613558565b61273d9060306134fd565b60f81b8183815181106127525761275261356c565b60200101906001600160f81b031916908160001a905350612774600a86613544565b9450612714565b816001600160a01b0316836001600160a01b0316036127dc5760405162461bcd60e51b815260206004820152601960248201527f4552433732313a20617070726f766520746f2063616c6c65720000000000000060448201526064016107e3565b6001600160a01b03838116600081815260056020908152604080832094871680845294825291829020805460ff191686151590811790915591519182527f17307eab39ab6107e8899845ad3d59bd9653f200f220920489ca2b5937696c31910160405180910390a3505050565b61182e828260405180602001604052806000815250612a15565b6001600160a01b0381166000908152600b602052604090205460ff1615156001146128d05760405162461bcd60e51b815260206004820181905260248201527f4552524f523a206e6f204365727469666963617465207265717565737465642e60448201526064016107e3565b6001600160a01b03166000908152600b60205260409020805460ff19169055565b60006001600160a01b0384163b156129e757604051631e56aebb60e21b81526001600160a01b0385169063795abaec90612935903390899088908890600401613582565b6020604051808303816000875af1925050508015612970575060408051601f3d908101601f1916820190925261296d918101906135c0565b60015b6129cd573d80801561299e576040519150601f19603f3d011682016040523d82523d6000602084013e6129a3565b606091505b5080516000036129c55760405162461bcd60e51b81526004016107e390613494565b805181602001fd5b6001600160e01b031916631e56aebb60e21b149050612295565b506001949350505050565b60065460ff1615610a2e5760405162461bcd60e51b81526004016107e3906133c4565b612a1f8383612a48565b612a2c60008484846128f1565b610a2e5760405162461bcd60e51b81526004016107e390613494565b6001600160a01b038216612a9e5760405162461bcd60e51b815260206004820181905260248201527f4552433732313a206d696e7420746f20746865207a65726f206164647265737360448201526064016107e3565b612aa78161257c565b15612af45760405162461bcd60e51b815260206004820152601c60248201527f4552433732313a20746f6b656e20616c7265616479206d696e7465640000000060448201526064016107e3565b612b00600083836129f2565b6001600160a01b0382166000908152600360205260408120805460019290612b299084906134fd565b9250508190555081600282604051612b4191906133ee565b90815260405190819003602001812080546001600160a01b03939093166001600160a01b031990931692909217909155612b7c9082906133ee565b604051908190038120906001600160a01b038416906000907f55e10366a5f552746106978b694d7ef3bbddec06bd5f9b9d15ad46f475c653ef908290a45050565b60808152600860808201526766616c6c6261636b60c01b60a082015284602082015260018060a01b038416604082015260c060608201528160c0820152818360e0830137600081830160e090810191909152601f909201601f191601019392505050565b6001600160e01b031981168114611d8f57600080fd5b600060208284031215612c4957600080fd5b8135610dd081612c21565b634e487b7160e01b600052604160045260246000fd5b600067ffffffffffffffff80841115612c8557612c85612c54565b604051601f8501601f19908116603f01168101908282118183101715612cad57612cad612c54565b81604052809350858152868686011115612cc657600080fd5b858560208301376000602087830101525050509392505050565b600082601f830112612cf157600080fd5b610dd083833560208501612c6a565b600060208284031215612d1257600080fd5b813567ffffffffffffffff811115612d2957600080fd5b61229584828501612ce0565b60005b83811015612d50578181015183820152602001612d38565b83811115610a655750506000910152565b60008151808452612d79816020860160208601612d35565b601f01601f19169290920160200192915050565b602081526000610dd06020830184612d61565b6001600160a01b0381168114611d8f57600080fd5b803561088781612da0565b60008060408385031215612dd357600080fd5b8235612dde81612da0565b9150602083013567ffffffffffffffff811115612dfa57600080fd5b612e0685828601612ce0565b9150509250929050565b60008060008060808587031215612e2657600080fd5b8435612e3181612da0565b93506020850135612e4181612da0565b9250604085013567ffffffffffffffff80821115612e5e57600080fd5b612e6a88838901612ce0565b93506060870135915080821115612e8057600080fd5b508501601f81018713612e9257600080fd5b612ea187823560208401612c6a565b91505092959194509250565b600060208284031215612ebf57600080fd5b5035919050565b600080600060608486031215612edb57600080fd5b8335612ee681612da0565b92506020840135612ef681612da0565b9150604084013567ffffffffffffffff811115612f1257600080fd5b612f1e86828701612ce0565b9150509250925092565b600060208284031215612f3a57600080fd5b8135610dd081612da0565b60008060408385031215612f5857600080fd5b8235612f6381612da0565b9150602083013560ff81168114612f7957600080fd5b809150509250929050565b6000815160a08452612f9960a0850182612d61565b90506020830151602085015260408301518482036040860152612fbc8282612d61565b91505060608301518482036060860152612fd68282612d61565b91505060808301518482036080860152612ff08282612d61565b95945050505050565b602081526000610dd06020830184612f84565b60408152600061301f6040830185612d61565b8281036020840152612ff08185612d61565b6000806040838503121561304457600080fd5b823561304f81612da0565b915060208301358015158114612f7957600080fd5b6000806040838503121561307757600080fd5b823561308281612da0565b946020939093013593505050565b600080604083850312156130a357600080fd5b82356130ae81612da0565b91506020830135612f7981612da0565b6060815260006130d16060830186612d61565b82810360208401526130e38186612d61565b905082810360408401526130f78185612f84565b9695505050505050565b60008060008060008060c0878903121561311a57600080fd5b61312387612db5565b9550602087013567ffffffffffffffff8082111561314057600080fd5b61314c8a838b01612ce0565b9650604089013591508082111561316257600080fd5b61316e8a838b01612ce0565b955060608901359450608089013591508082111561318b57600080fd5b6131978a838b01612ce0565b935060a08901359150808211156131ad57600080fd5b506131ba89828a01612ce0565b9150509295509295509295565b6020808252818101527f4f776e61626c653a2063616c6c6572206973206e6f7420746865206f776e6572604082015260600190565b600181811c9082168061321057607f821691505b60208210810361323057634e487b7160e01b600052602260045260246000fd5b50919050565b601f821115610a2e57600081815260208120601f850160051c8101602086101561325d5750805b601f850160051c820191505b8181101561327c57828155600101613269565b505050505050565b815167ffffffffffffffff81111561329e5761329e612c54565b6132b2816132ac84546131fc565b84613236565b602080601f8311600181146132e757600084156132cf5750858301515b600019600386901b1c1916600185901b17855561327c565b600085815260208120601f198616915b82811015613316578886015182559484019460019091019084016132f7565b50858210156133345787850151600019600388901b60f8161c191681555b5050505050600190811b01905550565b60208082526031908201527f4552433732313a207472616e736665722063616c6c6572206973206e6f74206f6040820152701ddb995c881b9bdc88185c1c1c9bdd9959607a1b606082015260800190565b600083516133a7818460208801612d35565b8351908301906133bb818360208801612d35565b01949350505050565b60208082526010908201526f14185d5cd8589b194e881c185d5cd95960821b604082015260600190565b60008251613400818460208701612d35565b9190910192915050565b634e487b7160e01b600052601160045260246000fd5b600060ff821660ff81036134365761343661340a565b60010192915050565b6001600160a01b038516815260806020820181905260009061346390830186612d61565b82810360408401526134758186612d61565b905082810360608401526134898185612d61565b979650505050505050565b60208082526032908201527f4552433732313a207472616e7366657220746f206e6f6e20455243373231526560408201527131b2b4bb32b91034b6b83632b6b2b73a32b960711b606082015260800190565b6000828210156134f8576134f861340a565b500390565b600082198211156135105761351061340a565b500190565b6000600182016135275761352761340a565b5060010190565b634e487b7160e01b600052601260045260246000fd5b6000826135535761355361352e565b500490565b6000826135675761356761352e565b500690565b634e487b7160e01b600052603260045260246000fd5b6001600160a01b038581168252841660208201526080604082018190526000906135ae90830185612d61565b82810360608401526134898185612d61565b6000602082840312156135d257600080fd5b8151610dd081612c2156fe4365727469666963617465207265717565737420686173204e4f54206265656e20697373756564206f722061636365707465642e4365727469666963617465207265717565737420686173206265656e2061636365707465642e4469706c6f6d6120686173206265656e207265717565737465642e2047657420696e20746f7563682077697468207468652041646d696e697374726174696f6e20746f2067657420796f7572204469706c6f6d61206973737565642e4469706c6f6d61206973206578697374656e7421204e756d626572206f6620617661696c61626c65206469706c6f6d617320616e64206d6f737420726563656e74206f6e653a20a26469706673582212208686f6ea5dec7c3267716be07459e57e23dcc5969804f27635432d77e2b70e8264736f6c634300080f0033",
  "immutableReferences": {},
  "source": "// SPDX-License-Identifier: MIT\npragma solidity ^0.8.4;\n\nimport \"./@openzeppelin/contracts@4.6.0/token/ERC721/ERC721.sol\";\nimport \"./@openzeppelin/contracts@4.6.0/security/Pausable.sol\";\nimport \"./@openzeppelin/contracts@4.6.0/access/Ownable.sol\";\nimport \"./@openzeppelin/contracts@4.6.0/utils/Strings.sol\";\n//import \"./@openzeppelin/contracts@4.6.0/utils/Counters.sol\";\n\n\ncontract MetaDipToken is ERC721, Pausable, Ownable {\n    //using Counters for Counters.Counter;\n\n    // EVENTS --------------------------------------------------------------\n\n    event NewCertificateIssued(address _student, string _studentFullName, string _academicTitle, string _cid);\n    event NewCertificateRequested(address _student, address _university);\n    event ETHTransaction(uint256 _amount, address _from, address _to);\n    event Log(string _function, uint _value, address _sender, bytes _data); //\"Receive Ether\" event\n\n\n    // VARIABLES --------------------------------------------------------------\n\n    //To increment the tokenId once a NFT was minted\n    //Counters.Counter private _tokenIdCounter;\n\n    uint256 CERTIFICATE_PRICE;\n    string private _certificateBaseURI;\n    string private university;\n    address private _owner;\n\n    // CONSTRUCTOR --------------------------------------------------------------\n\n    constructor() ERC721(\"MetaDip\", \"MDTkn\") {\n      CERTIFICATE_PRICE = 1 ether; //just for demonstration\n      _certificateBaseURI = \"https://nftstorage.link/ipfs/\";\n      _owner = msg.sender;\n    }\n\n    // STRUCTS --------------------------------------------------------------\n\n    struct CertificateInformation{\n      string _studentFullName;\n      uint256 _matriculationNumber;\n      string _gpa;\n      string _university;\n      string _academicTitle;\n    }\n\n    // MAPPING --------------------------------------------------------------\n\n    mapping (address => bool) acceptedRequests;\n    mapping (address => mapping(uint8 => CertificateInformation)) dipContent; //dipContent[student][0] would be students first diploma\n    mapping (address => uint8) numberOfDiplomas;\n    mapping (address => bool) certificateAvailable;\n    mapping (address => string) cid;\n\n\n//------------------------------------------------------------------------------\n// TOKEN CONTRACT\n\n//\n// PUBLIC --------------------------------------------------------------\n//\n\n    // GETTER\n\n    //returns the University Name\n    function getUniversity() public view returns (string memory){\n      return university;\n    }\n\n    function getContractAddress() public view returns (address){\n      return address(this);\n    }\n\n    function _baseURI() internal view override returns (string memory){\n      return _certificateBaseURI;\n    }\n\n    function getTokenURI(address student) public view returns (string memory){\n      require(certificateAvailable[student] == true, \"No token available.\");\n      string memory tkId = cid[student];\n      return tokenURI(tkId);\n    }\n\n    function getAcceptedRequests(address student) public view returns(string memory){\n      if(acceptedRequests[student]==true){return \"Request accepted.\";}\n      else{return \"Request not issued or accepted.\";}\n    }\n\n    function getCertificateAvailable(address student) public view returns(string memory){\n      if(certificateAvailable[student] == true){return \"Diploma available.\";}\n      else{return \"No Diploma available.\";}\n    }\n\n\n    //returns Price of a Certificate\n    function getPrice() public view whenNotPaused returns(string memory, string memory){\n      return(\"Price in Wei\", Strings.toString(CERTIFICATE_PRICE));\n    }\n\n    function getCertificateInformation(address _student, uint8 _certNumb) public view returns(CertificateInformation memory){\n      require(certificateAvailable[_student]==true, \"There is no Diploma available.\");\n\n        return dipContent[_student][_certNumb];\n\n    }\n\n\n    // ACTIONS\n\n    //Students can request their Certificates here\n    function requestCertificate() public payable whenNotPaused returns(string memory){\n      require(msg.value == CERTIFICATE_PRICE, \"Not the right amount of ether (ETH) transfered.\");\n      sendViaTransfer(payable(_owner), msg.value);\n\n      if(certificateAvailable[msg.sender] == true){\n        acceptedRequests[msg.sender] = true;\n        emit NewCertificateRequested(msg.sender, owner());\n        emit ETHTransaction(msg.value, msg.sender, owner());\n        string memory _output = \"Diploma has been requested. Get in touch with the Administration to get your Diploma issued.\";\n        return _output;\n      }\n\n      else{\n        numberOfDiplomas[msg.sender] = 0;\n        acceptedRequests[msg.sender] = true;\n        emit NewCertificateRequested(msg.sender, owner());\n        emit ETHTransaction(msg.value, msg.sender, owner());\n        string memory _output = \"Diploma has been requested. Get in touch with the Administration to get your Diploma issued.\";\n        return _output;\n      }\n    }\n\n    //employees or other Universities can check if student has degree\n    function requestVerification(address _studentAddress) public view returns(string memory, string memory, CertificateInformation memory){\n      require(certificateAvailable[_studentAddress]==true, \"There is NO diploma available!\");\n      uint8 number = numberOfDiplomas[_studentAddress];\n      //string memory messageVerfication = \"There is at least one Diploma available\";\n      return (\"Diploma is existent! Number of available diplomas and most recent one: \", Strings.toString(numberOfDiplomas[_studentAddress]),\n       dipContent[_studentAddress][number]);\n    }\n\n//\n// ONLY OWNER, UNIVERISTY --------------------------------------------------\n//\n\n    //Owner can check, if students request has been accepted\n    function checkCertificateRequests(address _studentAddress) public view whenNotPaused onlyOwner returns(string memory){\n      if(acceptedRequests[_studentAddress] == true){ return \"Certificate request has been accepted.\";}\n      else{ return \"Certificate request has NOT been issued or accepted.\";}\n    }\n\n\n    //mints Certificate, requires \"university\" to be set and for the students payment to have gone through\n    function createCertificate(address _studentAddress, string memory _cid, string memory _studentFullName, uint256 _matriculationNumber,\n      string memory _gpa, string memory _academicTitle)\n      public onlyOwner whenNotPaused{\n        require(bytes (university).length > 0, \"ADMINISTRATION ERROR: University is not set\"); //making sure, university name has been set\n        require(acceptedRequests[_studentAddress]==true, \"STUDENT ERROR: Student has not requested the Certificate.\");\n\n        //creates new Certificate content for student\n        CertificateInformation memory newCert = CertificateInformation(_studentFullName, _matriculationNumber,\n          _gpa, university, _academicTitle);\n\n        numberOfDiplomas[_studentAddress]++;\n        uint8 number = numberOfDiplomas[_studentAddress];\n\n        //maps students address to content\n        dipContent[_studentAddress][ number] = newCert;\n        cid[_studentAddress] = _cid;\n        //marks student address as true, if they want to view any certificates in the future\n        certificateAvailable[_studentAddress] = true;\n\n\n        safeMint(_studentAddress, _cid);\n        emit NewCertificateIssued(_studentAddress, _studentFullName, _academicTitle, _cid);\n        reset_acceptedRequests(_studentAddress);\n      }\n\n      // GETTER & SETTER\n\n      function getContractBalance() internal view onlyOwner returns (uint256) {\n          return address(this).balance;\n      }\n\n      //University set their University Name here\n      function setUniversity(string memory _university) public onlyOwner returns(string memory){\n        university = _university;\n        return university;\n      }\n\n      //If Price needs to be adjusted\n      function editPrice(uint256 _CERTIFICATE_PRICE) public whenNotPaused onlyOwner{\n        CERTIFICATE_PRICE = _CERTIFICATE_PRICE;\n      }\n\n\n      function safeMint(address to, string memory tokenId) public whenNotPaused onlyOwner {\n          //string tokenId = _tokenIdCounter.current(); //sets tokenId to current tokenIdCounter\n          //_tokenIdCounter.increment(); //increments tokenIdCounter\n\n          _safeMint(to, tokenId); //NFT is minted to address and tokenId\n        }\n\n      function withdraw (uint _amount) external onlyOwner {\n        require(_amount <= getContractBalance(), \"Not possible to withdraw more ETH than available.\");\n        payable(_owner).transfer(_amount);\n        emit ETHTransaction(_amount, msg.sender, _owner);\n      }\n\n      function withdrawAll () external onlyOwner {\n        payable(_owner).transfer(address(this).balance);\n        emit ETHTransaction(address(this).balance, msg.sender, _owner);\n      }\n\n\n      function pause() public onlyOwner {\n          _pause();\n      }\n\n      function unpause() public onlyOwner {\n          _unpause();\n      }\n\n  //\n  // INTERNAL --------------------------------------------------------------\n  //\n\n      //resets the students address to false, prevents issues when they request another certificate\n      function reset_acceptedRequests(address _studentAddress) internal {\n        require(acceptedRequests[_studentAddress] == true, \"ERROR: no Certificate requested.\");\n        acceptedRequests[_studentAddress] = false;\n      }\n\n      function _beforeTokenTransfer(address from, address to, string memory tokenId) internal whenNotPaused override {\n        super._beforeTokenTransfer(from, to, tokenId);\n      }\n\n//------------------------------------------------------------------------------\n\n//\n// RECEIVE ETHER\n//\n\n      receive() external payable{\n        emit Log(\"receive\", msg.value, msg.sender, \"\");\n      }\n\n      fallback() external payable{\n        emit Log(\"fallback\", msg.value, msg.sender, msg.data);\n      }\n\n      function getBalance() public view returns (uint256){\n        return address(this).balance;\n      }\n\n//------------------------------------------------------------------------------\n\n//\n// SEND ETHER\n//\n\n      function sendViaTransfer(address payable _to, uint _amount) public payable returns(bool){\n        _to.transfer(_amount);\n        return true;\n      }\n\n    }\n",
  "sourcePath": "/Users/laragraefnitz/privateblockchain/data/MetaDip/contracts/MetaDip.sol",
  "compiler": {
    "name": "solc",
    "version": "0.8.15+commit.e14f2714.Emscripten.clang"
  },
  "schemaVersion": "3.4.7",
  "updatedAt": "2022-07-14T13:40:10.403Z",
  "networkType": "ethereum",
  "devdoc": {
    "kind": "dev",
    "methods": {
      "approve(address,string)": {
        "details": "See {IERC721-approve}."
      },
      "balanceOf(address)": {
        "details": "See {IERC721-balanceOf}."
      },
      "getApproved(string)": {
        "details": "See {IERC721-getApproved}."
      },
      "isApprovedForAll(address,address)": {
        "details": "See {IERC721-isApprovedForAll}."
      },
      "name()": {
        "details": "See {IERC721Metadata-name}."
      },
      "owner()": {
        "details": "Returns the address of the current owner."
      },
      "ownerOf(string)": {
        "details": "See {IERC721-ownerOf}."
      },
      "paused()": {
        "details": "Returns true if the contract is paused, and false otherwise."
      },
      "renounceOwnership()": {
        "details": "Leaves the contract without owner. It will not be possible to call `onlyOwner` functions anymore. Can only be called by the current owner. NOTE: Renouncing ownership will leave the contract without an owner, thereby removing any functionality that is only available to the owner."
      },
      "safeTransferFrom(address,address,string)": {
        "details": "See {IERC721-safeTransferFrom}."
      },
      "safeTransferFrom(address,address,string,bytes)": {
        "details": "See {IERC721-safeTransferFrom}."
      },
      "setApprovalForAll(address,bool)": {
        "details": "See {IERC721-setApprovalForAll}."
      },
      "supportsInterface(bytes4)": {
        "details": "See {IERC165-supportsInterface}."
      },
      "symbol()": {
        "details": "See {IERC721Metadata-symbol}."
      },
      "tokenURI(string)": {
        "details": "See {IERC721Metadata-tokenURI}."
      },
      "transferFrom(address,address,string)": {
        "details": "See {IERC721-transferFrom}."
      },
      "transferOwnership(address)": {
        "details": "Transfers ownership of the contract to a new account (`newOwner`). Can only be called by the current owner."
      }
    },
    "version": 1
  },
  "userdoc": {
    "kind": "user",
    "methods": {},
    "version": 1
  }
}