{
  "contractName": "SendEther",
  "abi": [
    {
      "inputs": [
        {
          "internalType": "address payable",
          "name": "_to",
          "type": "address"
        },
        {
          "internalType": "uint256",
          "name": "_amount",
          "type": "uint256"
        }
      ],
      "name": "sendViaTransfer",
      "outputs": [
        {
          "internalType": "bool",
          "name": "",
          "type": "bool"
        }
      ],
      "stateMutability": "payable",
      "type": "function"
    }
  ],
  "bytecode": "0x608060405234801561001057600080fd5b506101eb806100206000396000f3fe60806040526004361061001e5760003560e01c8063d27f8e6614610023575b600080fd5b61003d6004803603810190610038919061013f565b610053565b60405161004a919061019a565b60405180910390f35b60008273ffffffffffffffffffffffffffffffffffffffff166108fc839081150290604051600060405180830381858888f1935050505015801561009b573d6000803e3d6000fd5b506001905092915050565b600080fd5b600073ffffffffffffffffffffffffffffffffffffffff82169050919050565b60006100d6826100ab565b9050919050565b6100e6816100cb565b81146100f157600080fd5b50565b600081359050610103816100dd565b92915050565b6000819050919050565b61011c81610109565b811461012757600080fd5b50565b60008135905061013981610113565b92915050565b60008060408385031215610156576101556100a6565b5b6000610164858286016100f4565b92505060206101758582860161012a565b9150509250929050565b60008115159050919050565b6101948161017f565b82525050565b60006020820190506101af600083018461018b565b9291505056fea2646970667358221220c7d450b5c4d5d395b50106ccb8776aab237c369442e54d1ed776ae37aa1889e464736f6c634300080f0033",
  "immutableReferences": {},
  "source": "// SPDX-License-Identifier: MIT\npragma solidity ^0.8.4;\n\n\ncontract SendEther{\n  function sendViaTransfer(address payable _to, uint _amount) public payable returns(bool){\n    _to.transfer(_amount);\n    return true;\n  }\n}\n",
  "sourcePath": "/Users/laragraefnitz/privateblockchain/data/MetaDip/contracts/SendEther.sol",
  "compiler": {
    "name": "solc",
    "version": "0.8.15+commit.e14f2714.Emscripten.clang"
  },
  "schemaVersion": "3.4.7",
  "updatedAt": "2022-07-13T12:36:19.225Z",
  "devdoc": {
    "kind": "dev",
    "methods": {},
    "version": 1
  },
  "userdoc": {
    "kind": "user",
    "methods": {},
    "version": 1
  }
}